:100000000C942A000C943E000C943C000C943C0090
:100010000C943C000C943C000C943C000C943C0070
:100020000C943C000C943C000C943C000C943C0060
:100030000C943C000C943C000C943C000C943C0050
:100040000C943C000C943C000C943C000C943C0040
:100050000C943C0011241FBECFE5D8E0DEBFCDBF1D
:1000600010E0A0E6B0E001C01D92A136B107E1F7B3
:100070000E9454000C947C000C9400001F920F927C
:100080000FB60F9211248F9380916000882321F482
:1000900081E08093600002C0109260008F910F9009
:1000A0000FBE0F901F9018958FEF8ABB8A9885B767
:1000B000836085BF8BB780648BBF789420E048EC69
:1000C00050E080916000882311F42F5F01C021501F
:1000D0002BBB88E893E1FA013197F1F70197D9F743
:1000E000F0CF8FEF8ABB8A98089585B7836085BF6C
:0C00F0008BB780648BBF0895F894FFCF9D
:00000001FF
